:020000040000FA
:06000000D3EF0EF0120028
:060008007AEF0DF012007A
:0600180083EF0DF0120061
:02002A000000D4
:04002C00D9CFE6FF43
:10003000E1CFD9FFE652060EDF6EDF06DF5002E1A8
:100040008B8421D0410EE66E9DEC0DF0E552000947
:1000500003E02CEC0EF0F1D7030EE66E19EC0EF077
:10006000E552000903E02CEC0EF0E7D7FE0EDBCFE3
:10007000E6FF19EC0EF0E552000903E02CEC0EF05F
:10008000DCD72CEC0EF0E552E552E7CFD9FF120099
:10009000D9CFE6FFE1CFD9FFE652060EDF6EDF06CD
:1000A000DF5002E18B8421D0400EE66E9DEC0DF016
:1000B000E552000903E02CEC0EF0F1D7030EE66EDA
:1000C00019EC0EF0E552000903E02CEC0EF0E7D736
:1000D000FE0EDBCFE6FF19EC0EF0E552000903E05F
:1000E0002CEC0EF0DCD72CEC0EF0E552E552E7CF0D
:1000F000D9FF12006AC0F6FF6BC0F7FF0800F55089
:100100000EE000016AC0F6FF6BC0F7FF6A2B000E1D
:100110006B230800F550E66E89DFE552EBD712003D
:100120006CC0F6FF6DC0F7FF0800F5500EE000014F
:100130006CC0F6FF6DC0F7FF6C2B000E6D2308003E
:10014000F550E66EA5DFE552EBD71200D9CFE6FFFA
:10015000E1CFD9FF0A0EF36EFA0EDBCFF4FFF350B6
:10016000F45C4DE3FB0EDBCF04F0FC0EDBCF05F0BF
:10017000FD0EDBCF06F0FE0EDBCF07F009680A6844
:100180000B680C68AFEC0EF0FB0E00C0DBFFFC0E42
:1001900001C0DBFFFD0E02C0DBFFFE0E03C0DBFF74
:1001A000FB0EDBCF10F0FC0EDBCF11F0FD0EDBCF32
:1001B00012F0FE0EDBCF13F0096ACA0E0A6E9A0E19
:1001C0000B6E3B0E0C6E10C004F011C005F012C097
:1001D00006F013C007F0AFEC0EF004C010F005C03D
:1001E00011F006C012F007C013F0300E1026000EFA
:1001F0001122122213221050E66E18DFE552090E6A
:10020000F36EFA0EDBCFF4FFF350F45C50E3FB0E19
:10021000DBCF04F0FC0EDBCF05F0FD0EDBCF06F0EC
:10022000FE0EDBCF07F0096ACA0E0A6E9A0E0B6E3D
:100230003B0E0C6EAFEC0EF0FB0E00C0DBFFFC0EB5
:1002400001C0DBFFFD0E02C0DBFFFE0E03C0DBFFC3
:10025000FB0EDBCF10F0FC0EDBCF11F0FD0EDBCF81
:1002600012F0FE0EDBCF13F0096AE10E0A6EF50EF6
:100270000B6E050E0C6E10C004F011C005F012C01C
:1002800006F013C007F0AFEC0EF004C010F005C08C
:1002900011F006C012F007C013F0300E1026000E49
:1002A0001122122213221050E66EC0DEE552080E13
:1002B000F36EFA0EDBCFF4FFF350F45C50E3FB0E69
:1002C000DBCF04F0FC0EDBCF05F0FD0EDBCF06F03C
:1002D000FE0EDBCF07F0096AE10E0A6EF50E0B6E1B
:1002E000050E0C6EAFEC0EF0FB0E00C0DBFFFC0E3B
:1002F00001C0DBFFFD0E02C0DBFFFE0E03C0DBFF13
:10030000FB0EDBCF10F0FC0EDBCF11F0FD0EDBCFD0
:1003100012F0FE0EDBCF13F0800E096E960E0A6E01
:10032000980E0B6E0C6A10C004F011C005F012C0DC
:1003300006F013C007F0AFEC0EF004C010F005C0DB
:1003400011F006C012F007C013F0300E1026000E98
:100350001122122213221050E66E68DEE552070EBB
:10036000F36EFA0EDBCFF4FFF350F45C50E3FB0EB8
:10037000DBCF04F0FC0EDBCF05F0FD0EDBCF06F08B
:10038000FE0EDBCF07F0800E096E960E0A6E980EF9
:100390000B6E0C6AAFEC0EF0FB0E00C0DBFFFC0E28
:1003A00001C0DBFFFD0E02C0DBFFFE0E03C0DBFF62
:1003B000FB0EDBCF10F0FC0EDBCF11F0FD0EDBCF20
:1003C00012F0FE0EDBCF13F0400E096E420E0A6EE5
:1003D0000F0E0B6E0C6A10C004F011C005F012C0B5
:1003E00006F013C007F0AFEC0EF004C010F005C02B
:1003F00011F006C012F007C013F0300E1026000EE8
:100400001122122213221050E66E10DEE552060E63
:10041000F36EFA0EDBCFF4FFF350F45C50E3FB0E07
:10042000DBCF04F0FC0EDBCF05F0FD0EDBCF06F0DA
:10043000FE0EDBCF07F0400E096E420E0A6E0F0E65
:100440000B6E0C6AAFEC0EF0FB0E00C0DBFFFC0E77
:1004500001C0DBFFFD0E02C0DBFFFE0E03C0DBFFB1
:10046000FB0EDBCF10F0FC0EDBCF11F0FD0EDBCF6F
:1004700012F0FE0EDBCF13F0A00E096E860E0A6E90
:10048000010E0B6E0C6A10C004F011C005F012C012
:1004900006F013C007F0AFEC0EF004C010F005C07A
:1004A00011F006C012F007C013F0300E1026000E37
:1004B0001122122213221050E66EB8DDE552050E0D
:1004C000F36EFA0EDBCFF4FFF350F45C4FE3FB0E58
:1004D000DBCF04F0FC0EDBCF05F0FD0EDBCF06F02A
:1004E000FE0EDBCF07F0A00E096E860E0A6E010E1F
:1004F0000B6E0C6AAFEC0EF0FB0E00C0DBFFFC0EC7
:1005000001C0DBFFFD0E02C0DBFFFE0E03C0DBFF00
:10051000FB0EDBCF10F0FC0EDBCF11F0FD0EDBCFBE
:1005200012F0FE0EDBCF13F0100E096E270E0A6ECE
:100530000B6A0C6A10C004F011C005F012C006F07E
:1005400013C007F0AFEC0EF004C010F005C011F0BE
:1005500006C012F007C013F0300E1026000E112254
:10056000122213221050E66E61DDE552040EF36E86
:10057000FA0EDBCFF4FFF350F45C4EE3FB0EDBCF5F
:1005800004F0FC0EDBCF05F0FD0EDBCF06F0FE0E17
:10059000DBCF07F0100E096E270E0A6E0B6A0C6A8D
:1005A000AFEC0EF0FB0E00C0DBFFFC0E01C0DBFF6A
:1005B000FD0E02C0DBFFFE0E03C0DBFFFB0EDBCF38
:1005C00010F0FC0EDBCF11F0FD0EDBCF12F0FE0EB3
:1005D000DBCF13F0E80E096E030E0A6E0B6A0C6A8D
:1005E00010C004F011C005F012C006F013C007F0EF
:1005F000AFEC0EF004C010F005C011F006C012F010
:1006000007C013F0300E1026000E11221222132202
:100610001050E66E0BDDE552030EF36EFA0EDBCFE3
:10062000F4FFF350F45C4DE3FB0EDBCF04F0FC0E63
:10063000DBCF05F0FD0EDBCF06F0FE0EDBCF07F0C3
:10064000E80E096E030E0A6E0B6A0C6AAFEC0EF030
:10065000FB0E00C0DBFFFC0E01C0DBFFFD0E02C085
:10066000DBFFFE0E03C0DBFFFB0EDBCF10F0FC0E4A
:10067000DBCF11F0FD0EDBCF12F0FE0EDBCF13F05F
:10068000640E096E0A6A0B6A0C6A10C004F011C08D
:1006900005F012C006F013C007F0AFEC0EF004C076
:1006A00010F005C011F006C012F007C013F0300EB4
:1006B0001026000E1122122213221050E66EB6DC14
:1006C000E552020EF36EFA0EDBCFF4FFF350F45C4A
:1006D0004CE3FB0EDBCF04F0FC0EDBCF05F0FD0E90
:1006E000DBCF06F0FE0EDBCF07F0640E096E0A6A60
:1006F0000B6A0C6AAFEC0EF0FB0E00C0DBFFFC0EC9
:1007000001C0DBFFFD0E02C0DBFFFE0E03C0DBFFFE
:10071000FB0EDBCF10F0FC0EDBCF11F0FD0EDBCFBC
:1007200012F0FE0EDBCF13F00A0E096E0A6A0B6A96
:100730000C6A10C004F011C005F012C006F013C01E
:1007400007F0AFEC0EF004C010F005C011F006C0C9
:1007500012F007C013F0300E1026000E11221222E4
:1007600013221050E66E62DCE552010EF36EFA0EB3
:10077000DBCFF4FFF350F45C36E3FB0EDBCF04F089
:10078000FC0EDBCF05F0FD0EDBCF06F0FE0EDBCF5F
:1007900007F00A0E096E0A6A0B6A0C6AAFEC0EF0DB
:1007A000FB0E00C0DBFFFC0E01C0DBFFFD0E02C034
:1007B000DBFFFE0E03C0DBFF300E106E116A126A03
:1007C000136AD950FB0FE96EFF0EDA20EA6EEE5085
:1007D0001026EE501122EE501222EE50132210502D
:1007E000E66E24DCE552E552E7CFD9FF1200D9CFFF
:1007F000E6FFE1CFD9FF0A0EF36EFA0EDBCFF4FF6E
:10080000F350F45C4EE3FB0EDBCF04F0FC0EDBCFC9
:1008100005F0FD0EDBCF06F0FE0EDBCF07F009681A
:100820000A680B680C68AFEC0EF0FB0E00C0DBFF33
:10083000FC0E01C0DBFFFD0E02C0DBFFFE0E03C09D
:10084000DBFFFB0EDBCF10F0FC0EDBCF11F0FD0E5B
:10085000DBCF12F0FE0EDBCF13F0096ACA0E0A6E70
:100860009A0E0B6E3B0E0C6E10C004F011C005F01A
:1008700012C006F013C007F0AFEC0EF004C010F089
:1008800005C011F006C012F007C013F0300E10269C
:10089000000E1122122213221050E66E48EC00F0D6
:1008A000E552090EF36EFA0EDBCFF4FFF350F45C61
:1008B00051E3FB0EDBCF04F0FC0EDBCF05F0FD0EA9
:1008C000DBCF06F0FE0EDBCF07F0096ACA0E0A6E18
:1008D0009A0E0B6E3B0E0C6EAFEC0EF0FB0E00C0D2
:1008E000DBFFFC0E01C0DBFFFD0E02C0DBFFFE0ED6
:1008F00003C0DBFFFB0EDBCF10F0FC0EDBCF11F0F3
:10090000FD0EDBCF12F0FE0EDBCF13F0096AE10E15
:100910000A6EF50E0B6E050E0C6E10C004F011C0C1
:1009200005F012C006F013C007F0AFEC0EF004C0E3
:1009300010F005C011F006C012F007C013F0300E21
:100940001026000E1122122213221050E66E48ECDF
:1009500000F0E552080EF36EFA0EDBCFF4FFF35011
:10096000F45C51E3FB0EDBCF04F0FC0EDBCF05F0B3
:10097000FD0EDBCF06F0FE0EDBCF07F0096AE10EBD
:100980000A6EF50E0B6E050E0C6EAFEC0EF0FB0E44
:1009900000C0DBFFFC0E01C0DBFFFD0E02C0DBFF71
:1009A000FE0E03C0DBFFFB0EDBCF10F0FC0EDBCF37
:1009B00011F0FD0EDBCF12F0FE0EDBCF13F0800E38
:1009C000096E960E0A6E980E0B6E0C6A10C004F03B
:1009D00011C005F012C006F013C007F0AFEC0EF026
:1009E00004C010F005C011F006C012F007C013F0EB
:1009F000300E1026000E1122122213221050E66E25
:100A000048EC00F0E552070EF36EFA0EDBCFF4FF70
:100A1000F350F45C51E3FB0EDBCF04F0FC0EDBCFB4
:100A200005F0FD0EDBCF06F0FE0EDBCF07F0800EEB
:100A3000096E960E0A6E980E0B6E0C6AAFEC0EF0F5
:100A4000FB0E00C0DBFFFC0E01C0DBFFFD0E02C091
:100A5000DBFFFE0E03C0DBFFFB0EDBCF10F0FC0E56
:100A6000DBCF11F0FD0EDBCF12F0FE0EDBCF13F06B
:100A7000400E096E420E0A6E0F0E0B6E0C6A10C00D
:100A800004F011C005F012C006F013C007F0AFEC7F
:100A90000EF004C010F005C011F006C012F007C03F
:100AA00013F0300E1026000E1122122213221050C5
:100AB000E66E48EC00F0E552060EF36EFA0EDBCF60
:100AC000F4FFF350F45C51E3FB0EDBCF04F0FC0EBB
:100AD000DBCF05F0FD0EDBCF06F0FE0EDBCF07F01F
:100AE000400E096E420E0A6E0F0E0B6E0C6AAFECD2
:100AF0000EF0FB0E00C0DBFFFC0E01C0DBFFFD0EA5
:100B000002C0DBFFFE0E03C0DBFFFB0EDBCF10F0ED
:100B1000FC0EDBCF11F0FD0EDBCF12F0FE0EDBCFB3
:100B200013F0A00E096E860E0A6E010E0B6E0C6A93
:100B300010C004F011C005F012C006F013C007F099
:100B4000AFEC0EF004C010F005C011F006C012F0BA
:100B500007C013F0300E1026000E112212221322AD
:100B60001050E66E48EC00F0E552050EF36EFA0EFA
:100B7000DBCFF4FFF350F45C50E3FB0EDBCF04F06B
:100B8000FC0EDBCF05F0FD0EDBCF06F0FE0EDBCF5B
:100B900007F0A00E096E860E0A6E010E0B6E0C6A2F
:100BA000AFEC0EF0FB0E00C0DBFFFC0E01C0DBFF64
:100BB000FD0E02C0DBFFFE0E03C0DBFFFB0EDBCF32
:100BC00010F0FC0EDBCF11F0FD0EDBCF12F0FE0EAD
:100BD000DBCF13F0100E096E270E0A6E0B6A0C6A3B
:100BE00010C004F011C005F012C006F013C007F0E9
:100BF000AFEC0EF004C010F005C011F006C012F00A
:100C000007C013F0300E1026000E112212221322FC
:100C10001050E66E48EC00F0E552040EF36EFA0E4A
:100C2000DBCFF4FFF350F45C4FE3FB0EDBCF04F0BB
:100C3000FC0EDBCF05F0FD0EDBCF06F0FE0EDBCFAA
:100C400007F0100E096E270E0A6E0B6A0C6AAFECE5
:100C50000EF0FB0E00C0DBFFFC0E01C0DBFFFD0E43
:100C600002C0DBFFFE0E03C0DBFFFB0EDBCF10F08C
:100C7000FC0EDBCF11F0FD0EDBCF12F0FE0EDBCF52
:100C800013F0E80E096E030E0A6E0B6A0C6A10C0B0
:100C900004F011C005F012C006F013C007F0AFEC6D
:100CA0000EF004C010F005C011F006C012F007C02D
:100CB00013F0300E1026000E1122122213221050B3
:100CC000E66E48EC00F0E552030EF36EFA0EDBCF51
:100CD000F4FFF350F45C4EE3FB0EDBCF04F0FC0EAC
:100CE000DBCF05F0FD0EDBCF06F0FE0EDBCF07F00D
:100CF000E80E096E030E0A6E0B6A0C6AAFEC0EF07A
:100D0000FB0E00C0DBFFFC0E01C0DBFFFD0E02C0CE
:100D1000DBFFFE0E03C0DBFFFB0EDBCF10F0FC0E93
:100D2000DBCF11F0FD0EDBCF12F0FE0EDBCF13F0A8
:100D3000640E096E0A6A0B6A0C6A10C004F011C0D6
:100D400005F012C006F013C007F0AFEC0EF004C0BF
:100D500010F005C011F006C012F007C013F0300EFD
:100D60001026000E1122122213221050E66E48ECBB
:100D700000F0E552020EF36EFA0EDBCFF4FFF350F3
:100D8000F45C4DE3FB0EDBCF04F0FC0EDBCF05F093
:100D9000FD0EDBCF06F0FE0EDBCF07F0640E096E12
:100DA0000A6A0B6A0C6AAFEC0EF0FB0E00C0DBFFA8
:100DB000FC0E01C0DBFFFD0E02C0DBFFFE0E03C018
:100DC000DBFFFB0EDBCF10F0FC0EDBCF11F0FD0ED6
:100DD000DBCF12F0FE0EDBCF13F00A0E096E0A6AAB
:100DE0000B6A0C6A10C004F011C005F012C006F0C6
:100DF00013C007F0AFEC0EF004C010F005C011F006
:100E000006C012F007C013F0300E1026000E11229B
:100E1000122213221050E66E48EC00F0E552010E4B
:100E2000F36EFA0EDBCFF4FFF350F45C37E3FB0E06
:100E3000DBCF04F0FC0EDBCF05F0FD0EDBCF06F0C0
:100E4000FE0EDBCF07F00A0E096E0A6A0B6A0C6A07
:100E5000AFEC0EF0FB0E00C0DBFFFC0E01C0DBFFB1
:100E6000FD0E02C0DBFFFE0E03C0DBFF300E106E76
:100E7000116A126A136AD950FB0FE96EFF0EDA206D
:100E8000EA6EEE501026EE501122EE501222EE5075
:100E900013221050E66E48EC00F0E552E552E7CF21
:100EA000D9FF1200D9CFE6FFE1CFD9FFFC0EDB500E
:100EB000000821E2FC0EDB06FD0EDBCF12F0FE0E79
:100EC000DBCF13F0FC0EDB50E1EC0EF01250F3140C
:100ED000106E1350F414116E1050111006E1300E04
:100EE000E66E16EC00F0E55205D0310EE66E16EC1B
:100EF00000F0E552DBD7E552E7CFD9FF1200D9CF9A
:100F0000E6FFE1CFD9FFFC0EDB50000821E2FC0E2A
:100F1000DB06FD0EDBCF12F0FE0EDBCF13F0FC0E76
:100F2000DB50E1EC0EF01250F314106E1350F41479
:100F3000116E1050111006E1300EE66E48EC00F014
:100F4000E55205D0310EE66E48EC00F0E552DBD7F5
:100F5000E552E7CFD9FF1200D9CFE6FFE1CFD9FFA5
:100F6000E652060EDF6EDF06DF5002E18B8421D0F1
:100F7000410EE66E9DEC0DF0E552000903E02CEC0D
:100F80000EF0F1D7040EE66E19EC0EF0E5520009F2
:100F900003E02CEC0EF0E7D7FE0EDBCFE6FF19ECFA
:100FA0000EF0E552000903E02CEC0EF0DCD72CEC3F
:100FB0000EF0E552E552E7CFD9FF1200D9CFE6FF98
:100FC000E1CFD9FFE652060EDF6EDF06DF5002E109
:100FD0008B8421D0400EE66E9DEC0DF0E5520009A9
:100FE00003E02CEC0EF0F1D7040EE66E19EC0EF0D7
:100FF000E552000903E02CEC0EF0E7D7FE0EDBCF44
:10100000E6FF19EC0EF0E552000903E02CEC0EF0BF
:10101000DCD72CEC0EF0E552E552E7CFD9FF1200F9
:10102000D9CFE6FFE1CFD9FF040EE126060EDF6E31
:10103000DE52010EDD6E020EDB6A030EDB6AF25039
:10104000800B01E0010EE76E030EE7CFDBFFF250ED
:10105000400B01E0010EE76E020EE7CFDBFFF29ED0
:10106000F29CDF06DF5002E18B842AD0410EE66E4F
:101070009DEC0DF0E552000903E02CEC0EF0F1D7E9
:10108000FE0EDB50640FE66E19EC0EF0E55200091F
:1010900003E02CEC0EF0E5D72CEC0EF0410EE66EE2
:1010A000DBEC0DF0E552000903E02CEC0EF0D9D793
:1010B00049EC0EF0E76E010EE7CFDBFF2CEC0EF0F3
:1010C000030EDB50E8B0F28EE8A0F29E020EDB5079
:1010D000E8B0F28CE8A0F29C010EDB50106E040E1A
:1010E000E15C03E200D0E16AE552E16E1050E552A6
:1010F000E7CFD9FF1200D9CFE6FFE1CFD9FF020E2B
:10110000E126060EDF6EDE52010EDD6EDF06DF50D9
:1011100002E18B842AD0400EE66E9DEC0DF0E55284
:10112000000903E02CEC0EF0F1D7FE0EDB50640F4B
:10113000E66E19EC0EF0E552000903E02CEC0EF01F
:10114000E5D72CEC0EF0400EE66EDBEC0DF0E55230
:10115000000903E02CEC0EF0D9D749EC0EF0E76E55
:10116000010EE7CFDBFF2CEC0EF0010EDB50106E12
:10117000020EE15C03E200D0E16AE552E16E10503C
:10118000E552E7CFD9FF1200D9CFE6FFE1CFD9FF73
:10119000030EE126060EDF6E010EDB6A020EDB6A2D
:1011A000F250800B01E0010EE76E020EE7CFDBFF8D
:1011B000F250400B01E0010EE76E010EE7CFDBFFBE
:1011C000F29EF29CDF06DF5002E18B8421D0410EBB
:1011D000E66E9DEC0DF0E552000903E02CEC0EF0FC
:1011E000F1D7020EE66E19EC0EF0E552000903E0AD
:1011F0002CEC0EF0E7D7FE0EDBCFE6FF19EC0EF07D
:10120000E552000903E02CEC0EF0DCD72CEC0EF0DC
:10121000020EDB50E8B0F28EE8A0F29E010EDB5029
:10122000E8B0F28CE8A0F29C030EE15C02E2E16A15
:10123000E552E16EE552E7CFD9FF1200D9CFE6FFC4
:10124000E1CFD9FFE652060EDF6EDF06DF5002E186
:101250008B8421D0400EE66E9DEC0DF0E552000926
:1012600003E02CEC0EF0F1D7020EE66E19EC0EF056
:10127000E552000903E02CEC0EF0E7D7FE0EDBCFC1
:10128000E6FF19EC0EF0E552000903E02CEC0EF03D
:10129000DCD72CEC0EF0E552E552E7CFD9FF120077
:1012A000D9CFE6FFE1CFD9FFE652060EDF6EDF06AB
:1012B000DF5002E18B841ED0410EE66E9DEC0DF0F6
:1012C000E552000903E02CEC0EF0F1D7E66A19ECC8
:1012D0000EF0E552000903E02CEC0EF0E8D7E66AC8
:1012E00019EC0EF0E552000903E02CEC0EF0DFD70C
:1012F0002CEC0EF0E552E552E7CFD9FF1200D9CF22
:10130000E6FFE1CFD9FFE652060EDF6EDF06DF50C3
:1013100002E18B841ED0400EE66E9DEC0DF0E5528E
:10132000000903E02CEC0EF0F1D7E66A19EC0EF0A0
:10133000E552000903E02CEC0EF0E8D7E66A19EC60
:101340000EF0E552000903E02CEC0EF0DFD72CEC98
:101350000EF0E552E552E7CFD9FF1200D9CFE6FFF4
:10136000E1CFD9FF020EE126DE52060EDD6E010E40
:10137000DB06DB5002E18B842BD0410EE66E9DEC48
:101380000DF0E552000903E02CEC0EF0F0D7010E51
:10139000E66E19EC0EF0E552000903E02CEC0EF0BD
:1013A000E6D7FE0EDB5004E1FD0EDB50DF6E04D00D
:1013B000FD0EDB50140FDF6EDFCFE6FF19EC0EF0F1
:1013C000E552000903E02CEC0EF0D1D72CEC0EF026
:1013D000020EE15C02E2E16AE552E16EE552E7CF1E
:1013E000D9FF1200D9CFE6FFE1CFD9FF020EE126E7
:1013F000DE52060EDD6E010EDB06DB5002E18B8451
:101400002BD0400EE66E9DEC0DF0E552000903E096
:101410002CEC0EF0F0D7010EE66E19EC0EF0E55252
:10142000000903E02CEC0EF0E6D7FE0EDB5004E1E1
:10143000FD0EDB50DF6E04D0FD0EDB50140FDF6EAF
:10144000DFCFE6FF19EC0EF0E552000903E02CECCB
:101450000EF0D1D72CEC0EF0020EE15C02E2E16A54
:0C146000E552E16EE552E7CFD9FF120023
:04146C00D9CFE6FFEF
:10147000E1CFD9FF040EE126DE52060EDD6E020E2C
:10148000DB6A030EDB6AFD0EDB50080805E2080E7E
:10149000F36EFD0EF3CFDBFFD950FB0FE96EFF0EAD
:1014A000DA20EA6E880ED880EE54130EED540AE26C
:1014B000880EF36EFB0EF3CFDBFF130EF36EFC0E04
:1014C000F3CFDBFFFA0EDB50106E116A113404E229
:1014D0001050FF08000E115402E2FA0EDB68FB0EFA
:1014E000DBCF10F0FC0EDBCF11F0060ED8901132DE
:1014F0001032E804FBE17F0E1016000E1116020EEA
:1015000010C0DBFF3F0EE76EFB0EDBCF10F0FC0ED2
:10151000DBCF11F0E7501016116A030E10C0DBFF8D
:10152000FD0EDB5049E1010EDF6E090EDF5C43E288
:10153000DE52060EDD6E010EDB06DB5002E18B840F
:101540007AD0FE0EDBCFE6FF9DEC0DF0E5520009F0
:1015500003E02CEC0EF0EFD7DFCFE6FF19EC0EF036
:10156000E552000903E02CEC0EF0E5D7020EDBCFCC
:10157000E6FF19EC0EF0E552000903E02CEC0EF04A
:10158000DAD7030EDBCFE6FF19EC0EF0E5520009C7
:1015900003E02CEC0EF0CFD7FA0EDBCFE6FF19EC10
:1015A0000EF0E552000903E02CEC0EF0C4D72CEC51
:1015B0000EF0DF2ABAD73FD0010EDB06DB5002E186
:1015C0008B8439D0FE0EDBCFE6FF9DEC0DF0E552AB
:1015D000000903E02CEC0EF0EFD7FD0EDBCFE6FFA9
:1015E00019EC0EF0E552000903E02CEC0EF0E4D704
:1015F000020EDBCFE6FF19EC0EF0E552000903E026
:101600002CEC0EF0D9D7030EDBCFE6FF19EC0EF071
:10161000E552000903E02CEC0EF0CED7FA0EDBCF3A
:10162000E6FF19EC0EF0E552000903E02CEC0EF099
:10163000C3D72CEC0EF0040EE15C02E2E16AE55245
:10164000E16EE552E7CFD9FF1200D9CFE6FFE1CF37
:10165000D9FF080EE126060EDF6EDE52010EDD6EAA
:10166000020EDB6A030EDB6A040EDB6A050EDB6A20
:10167000060EDB6A070EDB6AFD0EDB50080806E289
:10168000080EF36EFD0EF3CFDBFF08D0FD0EDB502E
:1016900005E1010EF36EFD0EF3CFDBFFDF06DF5039
:1016A00002E18B8458D0FE0EDBCFE6FF9DEC0DF0FF
:1016B000E552000903E02CEC0EF0F0D7FD0EDBCF75
:1016C00010F0800E1024E66E19EC0EF0E5520009C1
:1016D00003E02CEC0EF0E2D72CEC0EF0FE0EDBCF8C
:1016E000E6FFDBEC0DF0E552000903E02CEC0EF018
:1016F000D5D732EC0EF0E76E020EE7CFDBFF49ECF8
:101700000EF0E76E030EE7CFDBFF020EDB50106E2C
:10171000116A060ED89010361136E804FBE1060E69
:1017200010C0DBFF070E11C0DBFF030EDBCF12F092
:101730003F0E1214E76E060EDBCF10F0070EDBCF64
:1017400011F0E7501012060E10C0DBFF070E11C09B
:10175000DBFF2CEC0EF0060EDBCF10F0070EDBCF1C
:1017600011F010C0F3FF11C0F4FF080EE15C03E2BA
:1017700000D0E16AE552E16EE552E7CFD9FF1200F1
:10178000D9CFE6FFE1CFD9FF020EE126060EDF6ECC
:10179000FD0EDB50080805E2080EF36EFD0EF3CFD8
:1017A000DBFFFD0EDB5040E1DE52010EDD6E090E67
:1017B000F36E010EDBCFF4FFF350F45C34E2FC0E69
:1017C000DB5008E1010EDB502009E76EFD0EE7CF8C
:1017D000DBFF07D0010EDB501009E76EFD0EE7CFEF
:1017E000DBFF060EDF6EDF06DF5002E18B8418D0D0
:1017F000FE0EDBCFE6FF9DEC0DF0E552000903E0A5
:101800002CEC0EF0F0D7FD0EDBCFE6FF19EC0EF05E
:10181000E552000903E02CEC0EF0E5D72CEC0EF0BD
:10182000010EDB2AC4D72FD0FC0EDB5008E1FD0EE1
:10183000DB502009E76EFD0EE7CFDBFF07D0FD0E82
:10184000DB501009E76EFD0EE7CFDBFFDF06DF5050
:1018500002E18B8418D0FE0EDBCFE6FF9DEC0DF08D
:10186000E552000903E02CEC0EF0F0D7FD0EDBCFC3
:10187000E6FF19EC0EF0E552000903E02CEC0EF047
:10188000E5D72CEC0EF0020EE15C02E2E16AE552D3
:0A189000E16EE552E7CFD9FF120028
:06189A00D9CFE6FFE1CF0B
:1018A000D9FF060EE12601D9940EDE6E110EDD6E13
:1018B000640EF36E020EF3CFDBFF030EDB6A640EE1
:1018C000F36E040EF3CFDBFF050EDB6A80B40BD0A2
:1018D000010EE66EE66A210EE66EC0EC0BF0E552F4
:1018E000E552E552B3D080B2B1D080A2FED7020E4D
:1018F000DBCFE6FFDECFE6FFDDCFE6FFE66A210EB7
:10190000E66E36EC0AF0106E050EE15E1050200E09
:10191000E66EA10EE66E070EE66EE66AA2D8E55206
:10192000E552E552E552040EDBCFE6FFF40EE66E1B
:10193000010EE66EE66E210EE66E36EC0AF0106ED3
:10194000050EE15E1050040EDBCFE6FFE80EE66EFA
:10195000030EE66E020EE66E210EE66E36EC0AF01F
:10196000106E050EE15E1050040EDBCFE6FFF40EA4
:10197000E66E010EE66E030EE66E210EE66E36ECA6
:101980000AF0106E050EE15E1050040EDBCFE6FF8C
:10199000E20EE66E040EE66EE66E210EE66E36ECA4
:1019A0000AF0106E050EE15E1050040EDBCFE6FF6C
:1019B000CA0EE66E080EE66E050EE66E210EE66EA7
:1019C00036EC0AF0106E050EE15E1050040EDBCF0F
:1019D000E6FF200EE66E030EE66E060EE66E210EA4
:1019E000E66E36EC0AF0106E050EE15E1050040E45
:1019F000DBCFE6FFEE0EE66E020EE66E070EE66E3B
:101A0000210EE66E36EC0AF0106E050EE15E105007
:101A1000040EDBCFE6FFF40EE66E010EE66E080E56
:101A2000E66E210EE66E36EC0AF0106E050EE15EF3
:101A30001050800EE66E840EE66E1E0EE66EE66AAE
:101A400010D8E552E552E552E55251D73FD7060E80
:101A5000E15C02E2E16AE552E16EE552E7CFD9FFCF
:101A60001200D9CFE6FFE1CFD9FFD950FB0FE96EC5
:101A7000FF0EDA20EA6ED880000EEE54000EEE540F
:101A8000000EEE54000EEE540CE2D950FB0FE96E3E
:101A9000FF0EDA20EA6EEE06000EEE5AEE5AEE5A0D
:101AA000E4D7E552E7CFD9FF1200936A9268946AAF
:101AB0000F0EC16E8CEC0DF08A6A8B9A8B948B8220
:101AC0008B80100EE66E270EE66EE66AE66AC9DFC8
:101AD000E552E552E552E5528B90500EE66EC30E8C
:101AE000E66EE66AE66ABDDFE552E552E552E5528A
:101AF0008B921200DACFE4FFE2CFDAFFE652E55232
:101B0000E5CFDAFF1100DACFE4FFE2CFDAFFE652E9
:081B1000E552E5CFDAFF1100F8
:081B180094869488C78EC79CD7
:101B2000C69EC69CC68AC686C694C692C690640ED9
:101B3000C86E9D969F969E961200D9CFE6FFE1CF84
:101B4000D9FF8B82FE0EDB50020DFE0EF3CFDBFFC2
:101B5000DB50FE0BE76EFE0EE7CFDBFF9E96C580E7
:101B60009EA6FED79E96FE0EDB50C96E9EA6FED7A1
:101B70009E96C550400B01E0010E00D0E552E7CF24
:101B8000D9FF1200D9CFE6FFE1CFD9FF8B829E9615
:101B9000C5809EA6FED79E96FE0EDB50C96E9EA601
:101BA000FED79E96C550400B01E0010E00D0E552D5
:101BB000E7CFD9FF1200D9CFE6FFE1CFD9FF8B8263
:101BC000FE0EDB50020DFE0EF3CFDBFFDB500109F2
:101BD000E76EFE0EE7CFDBFF9E96C5809EA6FED782
:101BE0009E96FE0EDB50C96E9EA6FED79E96C550F1
:101BF000400B01E0010E00D0E552E7CFD9FF120003
:101C0000D9CFE6FFE1CFD9FF8B829E96C5809EA6F5
:101C1000FED79E96FE0EDB50C96E9EA6FED79E9600
:101C2000C550400B01E0010E00D0E552E7CFD9FFCF
:101C30001200D9CFE6FFE1CFD9FFFE0EDB50C96E0F
:101C40009EA6FED79E96C550400B01E0010E00D027
:101C5000E552E7CFD9FF1200C5849EA6FED79E9617
:101C60008B921200D9CFE6FFE1CFD9FFE652C586AD
:101C70009EA6FED79E96C950DF6EC59AC5889EA6C1
:101C8000FED79E96DF5000D0E552E552E7CFD9FF50
:101C90001200D9CFE6FFE1CFD9FFE652C5869EA656
:101CA000FED79E96C950DF6EC58AC5889EA6FED710
:101CB0009E96DF5000D0E552E552E7CFD9FF1200E3
:101CC0002A0EF66E000EF76E000EF86E0001090087
:101CD000F550656F0900F550666F03E1656701D047
:101CE0003DD00900F550606F0900F550616F0900A3
:101CF000F550626F09000900F550E96E0900F550D2
:101D0000EA6E090009000900F550636F0900F550FB
:101D1000646F09000900F6CF67F0F7CF68F0F8CFDD
:101D200069F060C0F6FF61C0F7FF62C0F8FF000114
:101D3000635302E1645307E00900F550EE6E630758
:101D4000F8E26407F9D767C0F6FF68C0F7FF69C01B
:0E1D5000F8FF00016507000E665BBFD71200AA
:021D5E00036A16
:101D6000026A016A006A200EE76ED89004360536D2
:101D70000636073600360136023603360950005C57
:101D80000A5001580B5002580C50035809E30950EF
:101D9000005E0A50015A0B50025A0C50035A042A92
:061DA000E72EE4D712005B
:0A1DA6001CEE00F02CEE00F0F86ACD
:101DB0000F9C60EC0EF0F3EC0EF04DEC0CF0FBD74A
:021DC00012000F
:0E1DC200F36AF46AF32A0F0B05E0D890F336AB
:081DD000F436E804FBE1120007
:081DD80000EE00F00D0EEE6AB2
:061DE000EA62FDD71200CB
:021DE6001200E9
:020000040030CA
:0100010006F8
:0100020019E4
:010003001EDE
:01000500807A
:010006008178
:00000001FF
